:03000000020003F8
:10005C0002005F12013C80FE438E0C900E3974B886
:10006C00F0A3740BF09000001218D790000122E559
:10007C0082900BB8F07AFF7BFF900BB8E0FC8A8281
:10008C008B83F022E582900BB9F0900BB9E0F599D7
:10009C0010990280FB22AAF0AB83E582900BBAF098
:1000AC00A3EBF0A3EAF0900BBAE0FAA3E0FBA3E019
:1000BC00FC7D007E008A828B838CF01225D4FF603D
:1000CC00300ABA00010B900BBAEAF0A3EBF0A3ECE8
:1000DC00F08F82C002C003C004C005C0061200909D
:1000EC00D006D005D004D003D0020DBD00C70E80C1
:1000FC00C4900BBAEAF0A3EBF0A3ECF075820DC040
:10010C0005C006120090D006D0050DBD00010E8D65
:10011C00828E83223098FD900BBDE599F0C29890A9
:10012C000BBDE0FAF582C002120090D0028A822246
:10013C00900DB6E4F0A3F0900DB8E4F0A3F0900DA0
:10014C00BAE4F0900DBBF0A3F0900DBDE4F0A3F079
:10015C00900DBFE4F0A3F0900DC5E4F0A3F043893B
:10016C0020439850758DFD758BFDD28E740DC0E0BB
:10017C007426C0E0121BC115811581740DC0E0748A
:10018C0026C0E0121BC115811581900DB4E4F0A3BB
:10019C00F0740DC0E07426C0E0121BC115811581EE
:1001AC007460C0E07426C0E0121BC11581158190EB
:1001BC000DC775F000121A94900DC775F000121748
:1001CC00A4AA82AB83900C22EAF0A3EBF053020FAB
:1001DC007B00BA0005BB00028020740DC0E07426C1
:1001EC00C0E0121BC11581158174ABC0E07426C030
:1001FC00E0121BC11581158180B5900C22E0FAA389
:10020C00E0FBC3EA9420EB940050030203AEC374EA
:10021C00B89A740B9B50030203AE8A828B83C00284
:10022C00C003121958AC82AD83D003D0028A828BE2
:10023C0083C002C003C004C005121958AE82AF833C
:10024C00D005D004D003D002E4BC0004BD000104EE
:10025C00F860030202FCE860030202FCC002C00367
:10026C00C004C005C006C007C00074E8C0E0742616
:10027C00C0E0121BC115811581D000D007D006D06B
:10028C0005D004D003D002C002C003C004C005C016
:10029C0006C007C0007408C0E07427C0E0121BC180
:1002AC0015811581D000D007D006D005D004D0031D
:1002BC00D002C002C003C004C005C006C007C00005
:1002CC007428C0E07427C0E0121BC115811581D0C1
:1002DC0000D007D006D005D004D003D002900C2457
:1002EC00EAF0A3EBF0900C26EAF0A3EBF00203C0CB
:1002FC008C028D0379008A828B8389F0C004C0053F
:10030C00C006C007C000121751D000D007D006D0CD
:10031C0005D004C004C005C006C007C000747CC072
:10032C00E07427C0E0121BC115811581D000D007E5
:10033C00D006D005D004C004C005C006C007C0005C
:10034C0074BBC0E07427C0E0121BC115811581D0AD
:10035C0000D007D006D005D004900DC775F000C0B2
:10036C0004C005C006C007C000121A94D000D00704
:10037C00D006D005D004900DC775F000C004C005A0
:10038C00C006C007C0001217A4E5828583F0D00018
:10039C00D007D006D005D004900C22F0A3E5F0F0E5
:1003AC00801274CCC0E07427C0E0121BC1158115FB
:1003BC00810201BBE86003020206BE0006BF000317
:1003CC00020206900CECECF0A3EDF0900CEEEEF0CB
:1003DC00A3EFF0900C22E0FAA3E0FB900C24EAF0DF
:1003EC00A3EBF0900C26EAF0A3EBF0900DB6E0FA3C
:1003FC00A3E0FB900DB674022AF0E43BA3F0900D41
:10040C00B8E0FAA3E0FB900DBAE0F8600122758227
:10041C0001C002C003C004C005C006C00712007BA7
:10042C00D007D006D005D004D003D002C002C00340
:10043C00C004C005C006C0077412C0E07428C0E038
:10044C00121BC115811581D007D006D005D004D060
:10045C0003D002C002C003C004C005C006C007120E
:10046C000120A882D007D006D005D004D003D0023A
:10047C000ABA00010B900DB8EAF0A3EBF08801B9B1
:10048C004100500302052F8801E924A55003020501
:10049C002FC002C003900C24E0F9A3E0FA900DBB2E
:1004AC00E0F508A3E0F509C3E50899E5099AE433FA
:1004BC00D003D0026043E5082CF582E5093DF583B5
:1004CC00E8F0900DBB74012508F0E43509A3F0C0E9
:1004DC0002C003C004C005C006C0077428C0E07485
:1004EC0028C0E0121BC115811581D007D006D0059C
:1004FC00D004D003D002020412C002C003C004C056
:10050C0005C006C0077446C0E07428C0E0121BC1C9
:10051C0015811581D007D006D005D004D003D002A8
:10052C000204128801B9300050030205E18801E988
:10053C0024C650030205E1C002C003900C24E0F570
:10054C0008A3E0F509900DBBE0FBA3E0FAC3EB9523
:10055C0008EA9509E433D003D002604FC002C0030F
:10056C00900DBDE0F9A3E0FAE92EF582EA3FF583A0
:10057C00E8F0900DBD740129F0E43AA3F0C002C07C
:10058C0003C004C005C006C0077455C0E07428C081
:10059C00E0121BC115811581D007D006D005D004FF
:1005AC00D003D002D003D002020412C002C003C098
:1005BC0004C005C006C0077470C0E07428C0E01207
:1005CC001BC115811581D007D006D005D004D003EE
:1005DC00D002020412B82B02801BB82D030208C0F3
:1005EC00B83D03020CACB83F03021108B84003023B
:1005FC000B1D02168BC002C003C004C005C006C090
:10060C0007747FC0E07428C0E0121BC115811581EE
:10061C00D007D006D005D004D003D002C002C0034E
:10062C00C004C005C006C00774D2C0E07428C0E086
:10063C00121BC115811581D007D006D005D004D06E
:10064C0003D002C002C003C004C005C006C00774BA
:10065C0026C0E07429C0E0121BC115811581D0079A
:10066C00D006D005D004D003D002C002C003C00411
:10067C00C005C006C0077478C0E07429C0E0121B26
:10068C00C115811581D007D006D005D004D003D078
:10069C0002C002C003C004C005C006C007748DC0F0
:1006AC00E07429C0E0121BC115811581D007D0065A
:1006BC00D005D004D003D002900DC775F000C00255
:1006CC00C003C004C005C006C007121A94D007D0DE
:1006DC0006D005D004D003D002900DC775F000C031
:1006EC0002C003C004C005C006C0071217A4A8822C
:1006FC00A983D007D006D005D004D003D002C00205
:10070C00C00388028903C374909A74019BE433F587
:10071C000888028903C3EA9428EB9400E433F50AB1
:10072C00900DB6E0F50BA3E0F50CD003D002E50A72
:10073C00600302082DE508600302082D8882898376
:10074C00C002C003C004C005C006C007C000C00181
:10075C0012195885820D85830ED001D000D007D098
:10076C0006D005D004D003D002900DB4E50DF0A353
:10077C00E50EF0E50D7004E50E6075C002C003C017
:10078C0002C003C004C005C006C007C000C001748D
:10079C00C7C0E07429C0E0121BC115811581D001BE
:1007AC00D000D007D006D005D004D003D002E50B82
:1007BC0025E0FAE50C33FBEA24ECF582EB340CF57E
:1007CC0083E50DF0A3E50EF0EA2424F582EB340C5E
:1007DC00F583E8F0A3E9F0050BE4B50B02050C90EA
:1007EC000DB6E50BF0A3E50CF0D003D00202088B9C
:1007FC00C002C003C004C005C006C007C000C001D1
:10080C0074E7C0E07429C0E0121BC115811581D0BA
:10081C0001D000D007D006D005D004D003D0028080
:10082C005EC002C003C004C005C006C007C000C043
:10083C00017408C0E0742AC0E0121BC11581158137
:10084C00D001D000D007D006D005D004D003D00200
:10085C00C002C003C004C005C006C007C000C00170
:10086C007417C0E0742AC0E0121BC115811581D029
:10087C0001D000D007D006D005D004D003D002C0E0
:10088C0002C003900DB4E0FAA3E0FBE4BA0004BB91
:10089C00000104F50DD003D002E50D600302073A08
:1008AC00E50D600302073A900DB6E50BF0A3E50CDD
:1008BC00F0020412C002C003C004C005C006C00789
:1008CC00747FC0E07428C0E0121BC115811581D063
:1008DC0007D006D005D004D003D002C002C003C09C
:1008EC0004C005C006C007743BC0E0742AC0E01207
:1008FC001BC115811581D007D006D005D004D003BB
:10090C00D002C002C003C004C005C006C007748B6F
:10091C00C0E0742AC0E0121BC115811581D007D02C
:10092C0006D005D004D003D002C002C003C004C05E
:10093C0005C006C007740DC0E07426C0E0121BC1D0
:10094C0015811581D007D006D005D004D003D00274
:10095C00C002C003C004C005C006C00774DEC0E0FE
:10096C00742AC0E0121BC115811581D007D006D0A6
:10097C0005D004D003D002900DC775F000C002C0A2
:10098C0003C004C005C006C007121A94D007D006D5
:10099C00D005D004D003D002900DC775F000C00272
:1009AC00C003C004C005C006C0071217A485820886
:1009BC00858309D007D006D005D004D003D002C35C
:1009CC00E4950874808509F063F08095F0500DC3B0
:1009DC00E5089409E50964809480402AC002C003AC
:1009EC00C004C005C006C0077411C0E0742BC0E081
:1009FC00121BC115811581D007D006D005D004D0AB
:100A0C0003D002020412E50930E703020412C37496
:100A1C0009950874808509F063F08095F050030205
:100A2C000412C3E5089402E50964809480E433F869
:100A3C00602AC002C003C004C005C006C0077447CA
:100A4C00C0E0742BC0E0121BC115811581D007D0FA
:100A5C0006D005D004D003D002020412E8600302D1
:100A6C000412C002C00385080DE509C50D25E0C5BB
:100A7C000D33F50EE50D24ECF50BE50E340CF50CF1
:100A8C00850B82850C83E0FAA3E0FB78008A828BCD
:100A9C008388F0C002C003C004C005C006C00712A2
:100AAC001751D007D006D005D004D003D002850B47
:100ABC0082850C83E4F0A3F0E50D2424F582E50E89
:100ACC00340CF583E4F0A3F0900DB6E0FAA3E0FB50
:100ADC001ABAFF011B900DB6EAF0A3EBF0C002C0EE
:100AEC0003C004C005C006C007C008C0097469C0B3
:100AFC00E0742BC0E0121BC1E58124FCF581D0070A
:100B0C00D006D005D004D003D002D003D00202040A
:100B1C0012C002C003C004C005C006C007747FC069
:100B2C00E07428C0E0121BC115811581D007D006D6
:100B3C00D005D004D003D002C002C003C004C0054D
:100B4C00C006C007748AC0E0742BC0E0121BC1152C
:100B5C00811581D007D006D005D004D003D002C0B7
:100B6C0002C003C004C005C006C0077426C0E074F0
:100B7C0029C0E0121BC115811581D007D006D00504
:100B8C00D004D003D002C002C003C004C005C0060C
:100B9C00C00774DAC0E0742BC0E0121BC1158115BC
:100BAC0081D007D006D005D004D003D002C002C03B
:100BBC0003C004C005C006C007120120A882D007DC
:100BCC00D006D005D004D003D002B84E028003B8B2
:100BDC006E2AC002C003C004C005C006C007741250
:100BEC00C0E0742CC0E0121BC115811581D007D058
:100BFC0006D005D004D003D002020412B8790280CA
:100C0C0003B85974742AC0E0742CC0E0121BC115CF
:100C1C00811581E4F50DF50EC3E50D9465E50E9493
:100C2C00005055E50D25E0FAE50E33FBEA24ECFC0B
:100C3C00EB340CFD8C828D83E0F8A3E0F97E008808
:100C4C008289838EF0C002C003C004C00512175104
:100C5C00D005D004D003D0028C828D83E4F0A3F0B5
:100C6C00EA2424F582EB340CF583E4F0A3F0050DB3
:100C7C00E4B50DA4050E80A0900DB6E4F0A3F074BD
:100C8C0042C0E0742CC0E0121BC115811581745355
:100C9C00C0E0742CC0E0121BC11581158102019DAE
:100CAC00C002C003C004C005C006C007747FC0E00A
:100CBC007428C0E0121BC115811581D007D006D055
:100CCC0005D004D003D002C002C003C004C005C0CC
:100CDC0006C0077464C0E0742CC0E0121BC11581FF
:100CEC001581D007D006D005D004D003D002C002A5
:100CFC00C003C004C005C006C00774B5C0E0742CA6
:100D0C00C0E0121BC115811581D007D006D005D0CB
:100D1C0004D003D002C002C003C004C005C006C08A
:100D2C00077409C0E0742DC0E0121BC11581158138
:100D3C00D007D006D005D004D003D002C002C00327
:100D4C00C004C005C006C0077449C0E0742DC0E0E3
:100D5C00121BC115811581D007D006D005D004D047
:100D6C0003D002900DC1E4F0A3F0900C24E0F8A3A2
:100D7C00E0F9900DBBE0F50FA3E0F510C3E50F987B
:100D8C00E510994003020EDC7401250FF50FE435D4
:100D9C0010F510880B890C900DC1E0F8A3E0F9C395
:100DAC00E8950BE9950C4003020F03C002C003E861
:100DBC002CF50DE93DF50EAA0DAB0E7800C002C066
:100DCC0003C004C005C006C007C002C003C0007445
:100DDC004CC0E0742DC0E07480C0E0121D35E5817C
:100DEC0024FAF581D007D006D005D004D003D00268
:100DFC00900DBFE4F0A3F0D003D002A80DA90EC053
:100E0C0002C003900DBFE0FAA3E0FBC3EA950FEB21
:100E1C009510E433D003D0026064C002C003900D7F
:100E2C00BFE0FAA3E0FBEA28F582EB39F583E0FAA0
:100E3C007B00C002C003C004C005C006C007C000D0
:100E4C00C001C002C0037469C0E0742DC0E074809E
:100E5C00C0E0121D35E58124FBF581D001D000D016
:100E6C0007D006D005D004D003D002900DBFE024EB
:100E7C0001F0A3E03400F0D003D002020E0BC0024C
:100E8C00C003C002C003C004C005C006C007746E16
:100E9C00C0E0742DC0E07480C0E0121D35158115C2
:100EAC00811581D007D006D005D004D003D0029094
:100EBC000DBFE0F8A3E0F9900DC1E0FAA3E0FB90C0
:100ECC000DC1E82AF0E93BA3F0D003D002020DA338
:100EDC00C002C003C004C005C006C0077471C0E0E6
:100EEC00742DC0E0121BC115811581D007D006D01E
:100EFC0005D004D003D002C002C003C004C005C09A
:100F0C0006C0077449C0E0742DC0E0121BC11581E6
:100F1C001581D007D006D005D004D003D002900D97
:100F2C00C1E4F0A3F0900C26E0F50BA3E0F50C90D7
:100F3C000DBDE0F8A3E0F9C3E8950BE9950C40036F
:100F4C000210B7740128F50FE439F510900DC1E0CB
:100F5C00F8A3E0F9C3E8950BE9950C400302108D5A
:100F6C00C002C003E82EF50DE93FF50EAA0DAB0E3D
:100F7C007800C002C003C004C005C006C007C00290
:100F8C00C003C000747FC0E0742DC0E0121BC1E52B
:100F9C008124FBF581D007D006D005D004D003D036
:100FAC0002900DBFE4F0A3F0D003D002A80DA90E5F
:100FBC00C002C003900DBFE0FAA3E0FBC3EA950F9B
:100FCC00EB9510E433D003D0026064C002C00390F0
:100FDC000DBFE0FAA3E0FBEA28F582EB39F583E0DC
:100FEC00FA7B00C002C003C004C005C006C007C025
:100FFC0000C001C002C0037469C0E0742DC0E0746D
:10100C0080C0E0121D35E58124FBF581D001D000B4
:10101C00D007D006D005D004D003D002900DBFE08D
:10102C002401F0A3E03400F0D003D002020FBCC0C6
:10103C0002C003C002C003C004C005C006C00774D0
:10104C006EC0E0742DC0E07480C0E0121D351581B7
:10105C0015811581D007D006D005D004D003D0025D
:10106C00900DBFE0F8A3E0F9900DC1E0FAA3E0FB0E
:10107C00900DC1E82AF0E93BA3F0D003D002020F97
:10108C0058C002C003C004C005C006C0077449C0E4
:10109C00E0742DC0E0121BC115811581D007D0065C
:1010AC00D005D004D003D002020412C002C003C089
:1010BC0004C005C006C007749CC0E0742DC0E012CB
:1010CC001BC115811581D007D006D005D004D003E3
:1010DC00D002C002C003C004C005C006C00774AE75
:1010EC00C0E0742DC0E0121BC115811581D007D052
:1010FC0006D005D004D003D002020412C002C003F3
:10110C00C004C005C006C007747FC0E07428C0E0EE
:10111C00121BC115811581D007D006D005D004D083
:10112C0003D002C002C003C004C005C006C00774CF
:10113C00E2C0E0742DC0E0121BC115811581D007EF
:10114C00D006D005D004D003D002C002C003C00426
:10115C00C005C006C0077426C0E07429C0E0121B8D
:10116C00C115811581D007D006D005D004D003D08D
:10117C0002900DBDE0F514A3E0F515900DBBE0F564
:10118C000FA3E0F510900DB6E0F50DA3E0F50EE41D
:10119C00F50BF50CC3E50B950DE50C950E40030214
:1011AC00143FC002C003850B08E50CC50825E0C53B
:1011BC000833F509E50824ECF512E509340CF513B0
:1011CC00851282851383E0FAA3E0FBE4BA0004BB2A
:1011DC00000104D003D0026003021434C002C00327
:1011EC00C002C003C004C005C006C007C00BC00CC1
:1011FC007431C0E0742EC0E0121BC1E58124FCF5F3
:10120C0081D007D006D005D004D003D0028512823D
:10121C00851383E0FAA3E0FB7800C002C003C0048E
:10122C00C005C006C007C002C003C000C00BC00C84
:10123C007457C0E0742EC0E0121BC1E58124F9F58F
:10124C0081D007D006D005D004D003D002851282FD
:10125C00851383E0F8A3E0F9E5082424F508E509F3
:10126C00340CF509850882850983E0FAA3E0FBEAD2
:10127C0028FAEB39FB7800C002C003C004C005C0DB
:10128C0006C007C002C003C000C00BC00C748BC0EA
:10129C00E0742EC0E0121BC1E58124F9F581D00762
:1012AC00D006D005D004D003D002850882850983EE
:1012BC00E0FAA3E0FBC002C003C004C005C006C036
:1012CC0007C002C003C00BC00C74BFC0E0742EC0BA
:1012DC00E0121BC1E58124FAF581D007D006D005B8
:1012EC00D004D003D002D003D002E50B450C700C17
:1012FC00900DC3E50FF0A3E510F0801EE50BB401D3
:10130C0004E50C6002800C900DC3E514F0A3E51508
:10131C00F08007900DC3E4F0A3F0C002C003C0023C
:10132C00C003C004C005C006C00774F3C0E0742E2F
:10133C00C0E0121BC115811581D007D006D005D095
:10134C0004D003D002900DC3E0F8A3E0F9C002C0B2
:10135C0003C004C005C006C007C000C001C000C067
:10136C0001C00BC00C74F7C0E0742EC0E0121BC19E
:10137C00E58124FAF581D001D000D007D006D00544
:10138C00D004D003D002E50B25E0FAE50C33FBEAE0
:10139C002424F582EB340CF583E0FAA3E0FBEAC3DA
:1013AC0098F8EB99F9C002C003C004C005C006C090
:1013BC0007C000C001C00BC00C7434C0E0742FC057
:1013CC00E0121BC1E58124FAF581D007D006D005C7
:1013DC00D004D003D002C002C003C004C005C006B4
:1013EC00C0077449C0E0742DC0E0121BC1158115F3
:1013FC0081D007D006D005D004D003D002C002C0E3
:10140C0003C004C005C006C0077449C0E0742DC0F9
:10141C00E0121BC115811581D007D006D005D00470
:10142C00D003D002D003D002050BE4B50B02050C9F
:10143C000211A0C002C003C002C003C004C005C09A
:10144C0006C0077449C0E0742DC0E0121BC11581A1
:10145C001581D007D006D005D004D003D002900D52
:10146C00BDE0F8A3E0F9900DBBE0F514A3E0F51591
:10147C00E82514F8E93515F9900DC5E0FAA3E0FB61
:10148C00900DC5E8C39AF0E99BA3F0C002C003C05D
:10149C0004C005C006C007900DC5E0C0E0A3E0C0C5
:1014AC00E07471C0E0742FC0E0121BC1E58124FC14
:1014BC00F581D007D006D005D004D003D002C002ED
:1014CC00C003C004C005C006C00774A7C0E0742FD9
:1014DC00C0E0121BC115811581D007D006D005D0F4
:1014EC0004D003D002C002C003C004C005C006C0B3
:1014FC000774FAC0E0742FC0E0121BC1158115816E
:10150C00D007D006D005D004D003D002D003D0022F
:10151C0074012514F512E43515F513E4F514F515DD
:10152C00C3E5149512E5159513506AC002C003E586
:10153C00142CFAE5153DFB8A828B83E0F8F582C00A
:10154C0002C003C004C005C006C007120090D0073B
:10155C00D006D005D004D003D0028A828B83E4F06D
:10156C00C002C003C004C005C006C0077416C0E0AA
:10157C007430C0E0121BC115811581D007D006D084
:10158C0005D004D003D0020514E4B514020515D01F
:10159C0003D002808B900DBBE4F0A3F0C002C0031B
:1015AC00C004C005C006C007741BC0E07430C0E0A6
:1015BC00121BC115811581D007D006D005D004D0DF
:1015CC0003D002900DBDE0F8A3E0F9740128F512E8
:1015DC00E439F513E4F514F515C3E5149512E51586
:1015EC009513506AC002C003E5142EFAE5153FFBB3
:1015FC008A828B83E0F8F582C002C003C004C00568
:10160C00C006C007120090D007D006D005D004D079
:10161C0003D0028A828B83E4F0C002C003C004C0F2
:10162C0005C006C0077416C0E07430C0E0121BC1C0
:10163C0015811581D007D006D005D004D003D00277
:10164C000514E4B514020515D003D002808B900D5F
:10165C00BDE4F0A3F0C002C003C004C005C006C0C6
:10166C00077449C0E0742DC0E0121BC115811581AF
:10167C00D007D006D005D004D003D002020412C08B
:10168C0002C003C004C005C006C0077438C0E074B3
:10169C0030C0E0121BC115811581D007D006D005D2
:1016AC00D004D003D002C002C003C004C005C006E1
:1016BC00C007740DC0E07426C0E0121BC115811563
:1016CC0081D007D006D005D004D003D0020204127A
:10260D000D2B2B2B2B2B2B2B2B2B2B2B2B2B2B2B2B
:10261D002B2B2B2B2B2B2B2B2B2B2B2B2B2B2B2BFD
:10262D002B2B2B2B2B2B2B2B2B2B2B2B2B2B2B2BED
:10263D002B2B2B2B2B2B2B2B2B2B2B2B2B2B2B2BDD
:10264D002B2B2B2B2B2B2B2B2B2B2B2B2B2B2B2BCD
:10265D002B0A000D0A456E74657220746865204260
:10266D0075666665723020616E64204275666665BA
:10267D0072312073697A65206265747765656E20A5
:10268D00333220616E6420333030302C64697669CA
:10269D007369626C652062792031363A0A000D0A41
:1026AD00506C65617365207072696E742061207362
:1026BD00697A6520646976697369626C65206279EF
:1026CD0020313620696E2072616E676520676976EC
:1026DD00656E2061626F76653A0A000D0A20436FC0
:1026ED006E67726174732120425546464552302003
:1026FD00414C4F4F434154454421000D0A20436F37
:10270D006E677261747321204255464645523120E1
:10271D00414C4C4F434154454421000A0D2B2B2B6A
:10272D002B2B2B2B2B2B2B2B2B2B2B2B2B2B2B2BEC
:10273D002B2B2B2B2B2B2B2B2B2B2B2B2B2B2B2BDC
:10274D002B2B2B2B2B2B2B2B2B2B2B2B2B2B2B2BCC
:10275D002B2B2B2B2B2B2B2B2B2B2B2B2B2B2B2BBC
:10276D002B2B2B2B2B2B2B2B2B2B2B2B2B0A000D16
:10277D000A4D414C4C4F43204641494C45442C2079
:10278D004255464645523020262042554646455232
:10279D0031204641494C45442E456E746572206189
:1027AD0020736D616C6C65722073697A65000D0A1A
:1027BD004255464645523020467265656421000DEE
:1027CD000A506C65617320656E74657220612070AE
:1027DD00726F70657220736D616C6C6572207369B8
:1027ED007A6520696E2072616E6765206265747707
:1027FD0065656E20333220616E6420343030206F79
:10280D006E6C790A000D0A456E7465722061206345
:10281D0068617261637465723A20000A53544F52B5
:10282D00494E472055505045524341534520494E3E
:10283D0020425546464552300009425546464552BE
:10284D00302046554C4C21000A53544F52494E47A7
:10285D00204E554D42455220494E20425546464543
:10286D0052310009425546464552312046554C4C91
:10287D0021000D3D3D3D3D3D3D3D3D3D3D3D3D3D04
:10288D003D3D3D3D3D3D3D3D3D3D3D3D3D3D3D3D6B
:10289D003D3D3D3D3D3D3D3D3D3D3D3D3D3D3D3D5B
:1028AD003D3D3D3D3D3D3D3D3D3D3D3D3D3D3D3D4B
:1028BD003D3D3D3D3D3D3D3D3D3D3D3D3D3D3D3D3B
:1028CD003D3D3D0A000D7C090909414444494E47EF
:1028DD0020425546464545522120202020202020CB
:1028ED0020202020202020202020202020202020DB
:1028FD0020202020202020202020202020202020CB
:10290D0020202020202020202020202020202020BA
:10291D00202020202020207C000A0D3D3D3D3D3D06
:10292D003D3D3D3D3D3D3D3D3D3D3D3D3D3D3D3DCA
:10293D003D3D3D3D3D3D3D3D3D3D3D3D3D3D3D3DBA
:10294D003D3D3D3D3D3D3D3D3D3D3D3D3D3D3D3DAA
:10295D003D3D3D3D3D3D3D3D3D3D3D3D3D3D3D3D9A
:10296D003D3D3D3D3D3D3D3D3D0A000A0D4144444B
:10297D002041204E455720425546464552200A00DB
:10298D000D0A454E5445522041204E455720425583
:10299D0046464552204F462053495A4520424554FC
:1029AD005745454E20343020414E442034303020A0
:1029BD0042595445533A20206E000D0A20436F6E44
:1029CD00677261747321204255464645524E20412F
:1029DD004C4F4F434154454421000D0A4D414C4C41
:1029ED004F43204641494C45442C204255464645CF
:1029FD00524E204641494C45442E000A0A4F4F5035
:102A0D005321204572726F720A000A0D53495A45BF
:102A1D00204F5554204F462052414E47452E42558A
:102A2D00464645524E204641494C454421000D092C
:102A3D00090944454C4554452042554646455221C9
:102A4D002020202020202020202020202020202079
:102A5D002020202020202020202020202020202069
:102A6D002020202020202020202020202020202059
:102A7D002020202020202020202020200A000A0DA8
:102A8D003D3D3D3D3D3D3D3D3D3D3D3D3D3D3D3D69
:102A9D003D3D3D3D3D3D3D3D3D3D3D3D3D3D3D3D59
:102AAD003D3D3D3D3D3D3D3D3D3D3D3D3D3D3D3D49
:102ABD003D3D3D3D3D3D3D3D3D3D3D3D3D3D3D3D39
:102ACD003D3D3D3D3D3D3D3D3D3D3D3D3D3D3D0A5C
:102ADD00000D0A5350454349465920425546464537
:102AED0052204E554D42455220544F2042452044D0
:102AFD00454C455445442046524F4D204D454D4F74
:102B0D0052593A000D0A456E746572202061207687
:102B1D00616C6964206E756D6265722064656369B0
:102B2D006D616C206E756D62657220677265617482
:102B3D006572207468616E20310043414E4E4F54D2
:102B4D002044454C4554452042554646455230207B
:102B5D00616E642042554646455231000D0A2042B1
:102B6D00554646455225642044454C455445442020
:102B7D005355434345535346554C4C59000D090984
:102B8D000946524545204845415021434F4E534536
:102B9D0052564520535041434521202020202020CE
:102BAD002020202020202020202020202020202018
:102BBD002020202020202020202020202020202008
:102BCD0020202020202020202020200A000D0A5324
:102BDD00454C454354454420434F4D4D414E4420B3
:102BED0057494C4C204652454520414C4C204255AE
:102BFD0046464552532E436F6E74696E756528595E
:102C0D002F4E293F000D0A0950524F434553532073
:102C1D005445524D494E415445442E0A000D0A0962
:102C2D0046524545494E4720414C4C20425546465B
:102C3D004552530A000A5354415254494E472041BC
:102C4D004741494E0A000A57454C434F4D452041D7
:102C5D004741494E210A000D090909414444524595
:102C6D005353204F46204255464645525320494E18
:102C7D0020484558202020202020202020202020C2
:102C8D002020202020202020202020202020202037
:102C9D002020202020202020202020202020202027
:102CAD002020202020200A000A0D3D3D3D3D3D3DC8
:102CBD003D3D3D3D3D3D3D3D3D3D3D3D3D3D3D3D37
:102CCD003D3D3D3D3D3D3D3D3D3D3D3D3D3D3D3D27
:102CDD003D3D3D3D3D3D3D3D3D3D3D3D3D3D3D3D17
:102CED003D3D3D3D3D3D3D3D3D3D3D3D3D3D3D3D07
:102CFD003D3D3D3D3D3D3D3D3D3D0A000D0A5345AC
:102D0D004C4543544544204F5054494F4E2057494C
:102D1D004C4C2053484F572054484520434F4E5458
:102D2D00454E5453204F462042554646455230207D
:102D3D00414E442042554646455231000D0A000D84
:102D4D000A4144445245535320464F522042554662
:102D5D0046455220303A200A25703A002520782029
:102D6D00000A0D000A0D4255464645522046554C67
:102D7D004C000D0A4144445245535320464F5220B6
:102D8D0042554646455220313A200A25703A000AEE
:102D9D000D425546464552312049532046554C4C1F
:102DAD00000D0A50524553532027402720494620F5
:102DBD00594F55204E4545442044455441494C45B5
:102DCD004420434F4E54454E54204F4620425546C5
:102DDD0046455253000D0A0909095245504F5254A8
:102DED002041424F555420425546464552532020CE
:102DFD0020202020202020202020202020202020C6
:102E0D0020202020202020202020202020202020B5
:102E1D0020202020202020202020202020202020A5
:102E2D0020200A000D0A090909425546464552253A
:102E3D00642044455441494C5320415320464F4C46
:102E4D004C4F57530909090A20000D0A09425546EE
:102E5D004645522025642053544152545320465226
:102E6D004F4D2020202020202020202020202020F9
:102E7D002020202020203A202020202570000D0A1F
:102E8D000942554646455220256420454E44494E3B
:102E9D0047204144445245535320202020202020D8
:102EAD00202020202020202020203A2020202025F6
:102EBD0070000D0A0953495A45204F462042554688
:102ECD00464552202564202020202020202020202F
:102EDD0020202020202020202020202020203A20CB
:102EED00202020256400090D0A00090D0A4E554DBC
:102EFD00424552204F4620434F4E54454E54532089
:102F0D004F4620425546464552202564202020201C
:102F1D002020202020202020202020202020203A8A
:102F2D0020202020256400090D0A465245452053D6
:102F3D005041434520494E20425546464552202595
:102F4D006420202020202020202020202020202030
:102F5D002020202020202020202020203A2020204A
:102F6D00202564000D0A094E756D626572206F662D
:102F7D002063686172616374657273207265636545
:102F8D00697665642074696C6C206C617374273F7D
:102F9D00272020203A2025640A000D2D2D2D2D2DC2
:102FAD002D2D2D2D2D2D2D2D2D2D2D2D2D2D2D2D44
:102FBD002D2D2D2D2D2D2D2D2D2D2D2D2D2D2D2D34
:102FCD002D2D2D2D2D2D2D2D2D2D2D2D2D2D2D2D24
:102FDD002D2D2D2D2D2D2D2D2D2D2D2D2D2D2D2D14
:102FED002D2D2D2D2D2D2D2D2D2D2D0A000D0A09BB
:102FFD00434F4E54454E5453204F4620425546465E
:10300D004552303A0A2020200020202009000D0AC8
:10301D0009434F4E54454E5453204F46204255467A
:10302D00464552313A0A20202020000D0A204E4FED
:10303D00542053544F52494E472E4A555354204411
:0C304D004953504C4159494E47210A009C
:1016DC00AA83E582900E2DF0A3EAF0900E2DE0FA8D
:1016EC00A3E0FB4A700490000022EA24FCFAEB34DD
:1016FC00FFFB900E37E0FCA3E0FD900E2FECF0A367
:10170C00EDF0900E2BE4F0A3F0900E2FE0FCA3E094
:10171C00FD4C6025EAB50406EBB50502801B900E66
:10172C002BECF0A3EDF08C828D83E0FCA3E0FD901C
:10173C000E2FECF0A3EDF080D0900E2FE0FAA3E08A
:10174C008A82F58322AAF0AB83E582900E31F0A356
:10175C00EBF0A3EAF0900E31E0FAA3E0FBA3E0FC7F
:10176C008A828B831216DCAA82AB83EA4B602890A8
:10177C000E2BE0FCA3E0FD4C700B8A828B83A3A3A1
:10178C00E4F0A3F0228A828B83E0FAA3E0FB8C8244
:08179C008D83EAF0A3EBF022BB
:06003200E478FFF6D8FDA2
:100010007900E94400601B7A00903064787E75A016
:100020000EE493F2A308B8000205A0D9F4DAF27541
:02003000A0FF2F
:1017A400AAF0AB83E582900E34F0A3EBF0A3EAF049
:1017B4007A007B00900E34E0FCA3E0FDA3E0FE8CF5
:1017C400828D838EF01225D4FF6039C374B98FF0F3
:1017D40063F08095F04007EF648094B050268C82CB
:1017E4008D838EF01225D4FFBF2D028017BF2B02EC
:1017F40080120CBC00010D900E34ECF0A3EDF0A3AC
:10180400EEF080BB900E34ECF0A3EDF0A3EEF08C80
:10181400828D838EF01225D4FFE4BF2D0104F88855
:10182400017003BF2B0E900E3474012CF0E43DA321
:10183400F0A3EEF0900E34E0FCA3E0FDA3E0FE8CF8
:10184400828D838EF01225D4FF6068C3EF64809488
:10185400B0406074B98FF063F08095F04055C001DA
:10186400900E4E740AF0E4A3F08A828B83C004C005
:1018740005C006C007C001121CC9858216858317DE
:10188400D001D007D006D005D004EF3395E0F8EFAF
:1018940024D0FFE834FFF8EF2516FAE83517FB0CDF
:1018A400BC00010D900E34ECF0A3EDF0A3EEF0D0EB
:1018B40001808C900E34ECF0A3EDF0A3EEF0E9601F
:1018C40009C3E49AFCE49BFD80048A048B058C82A2
:1018D4008D8322AA83E582900E3BF0A3EAF0900E5A
:1018E4003BE0FAA3E0FB900E3DEAF0A3EBF0EA4BF9
:1018F4007020900E3D74012AF0E43BA3F0900E3961
:10190400E0FAA3E0FB1ABAFF011B900E39EAF0A338
:10191400EBF0900E3DE0FAA3E0FB900E37EAF0A363
:10192400EBF0900E39E0FCA3E0FDEC2AFCED3BFD6E
:10193400EC24FEFCED34FFFD8A828B83ECF0A3EDF6
:10194400F08C828D83E4F0A3F08A828B83A3A3E4DA
:10195400F0A3F022AA83E582900E3FF0A3EAF09070
:101964000E3FE0FAA3E0FBC374FB9A74FF9B5004A0
:1019740090000022900E3F74042AF0E43BA3F09000
:101984000E37E0FAA3E0FB900E41EAF0A3EBF090EF
:101994000E3FE0F51EA3E0F51F900E41E0FCA3E02E
:1019A400FD8C828D83E0FEA3E0FF8E008F018C020C
:1019B4008D03E8C39AF8E99BF98C828D83A3A3E095
:1019C400FAA3E0FBE8C39AF8E99BF9C3E8951EE99A
:1019D400951F400D900E4374042CF0E43DA3F08059
:1019E40023900E41EEF0A3EFF0900E41E0FAA3E055
:1019F400FB8A828B83E0FAA3E0FB4A709C900E433F
:101A0400E4F0A3F0900E43E0FAA3E0FB4A70030273
:101A14001A88900E41E0FAA3E0FB74022AFCE43B2E
:101A2400FD8C828D83E0FEA3E0FF4E7013900E3F89
:101A3400E0F8A3E0F98C828D83E8F0A3E9F0804418
:101A4400EE2AFEEF3BFF8A828B83E0FCA3E0FD8E4F
:101A5400828F83ECF0A3EDF08A828B83EEF0A3EF08
:101A6400F074022EFAE43FFB900E3FE0FCA3E0FD8D
:101A74008A828B83ECF0A3EDF0900E4374042EF075
:101A8400E43FA3F0900E43E0FAA3E08A82F58322B8
:101A9400AAF0AB83E582900E45F0A3EBF0A3EAF045
:101AA400900E45E0FAA3E0FBA3E0FC900E48EAF0B8
:101AB400A3EBF0A3ECF0900E4BE4F0A3F0120120A2
:101AC400AA82BA0802800DBA0A028067BA0D02809F
:101AD40062021B6A900E4BE0FBA3E0FC4B60DE75D8
:101AE4008208C003C004120090D004D00375822081
:101AF400C003C004120090D004D003758208C00350
:101B0400C004120090D004D003900E48E0FDA3E07E
:101B1400FEA3E0FF1DBDFF011E900E48EDF0A3EEF5
:101B2400F0A3EFF01BBBFF011C900E4BEBF0A3ECFA
:101B3400F0808A75820D12009075820A12009090CE
:101B44000E48E0FBA3E0FCA3E0FD8B828C838DF0C8
:101B5400E4121BA8900E45E0FBA3E0FCA3E0FD8B80
:101B6400828C838DF022900E48E0FBA3E0FCA3E07E
:101B7400FD8B828C838DF0EA121BA8900E487401B1
:101B84002BF0E43CA3F0A3EDF0900E4BE0FBA3E0BC
:101B9400FC900E4B74012BF0E43CA3F08A821200FB
:101BA40090021AC120F71030F6118883A88220F51C
:101BB40007F6A88375830022F280F7F022C0188507
:101BC4008118E51824FDF8868318868218E493A307
:101BD40024DB600C24256005121CAE80F0021CC6B8
:101BE400D2D5E493A3C083C082B4731486F018865C
:101BF40083188682181225D46053A3121CAE80F574
:101C0400B46307E618121CAE8043B46417E630E7E9
:101C14004618E6F42401F608E6F43400F6742D12AE
:101C24001CAE8033B4782D868318868218E4121C87
:101C34009FE583121C9EE583121C9FE582121C9E65
:101C4400E582121C9F30D5057430121CAED082D0B0
:101C540083021BD1B475F6E6FA18E6F9187C107DF8
:101C640027121C89FF7CE87D03121C89C4F5837C40
:101C7400647D00121C894283E975F00A84C445F02E
:101C8400F582EF80A97B000BC3E99CF9EA9DFA5029
:101C9400F61BE92CF9EA3DFAEB22C4540F70032039
:101CA400D51FC2D52490D43440D4C083C082C0F0A0
:101CB400F582E8C0E0120090D0E0F8D0F0D082D0F5
:101CC4008322D01822AA83AB828BF0900E4EE0A41C
:101CD400F8A9F08AF0E0A429F98BF0A3E0A429F58F
:051CE40083888222222A
:100038007800E84400600A790075A000E4F309D864
:10004800FC787EE8440E600C790F900000E4F0A381
:04005800D8FCD9FAFD
:101CE900C018858118AA82120090D01822AAF0ABD8
:101CF90083E582900E51F0A3EBF0A3EAF0900E5128
:101D0900E0FAA3E0FBA3E0FC900E50E0FD900E6426
:101D1900E4F0A3F0A3F0900E67EAF0A3EBF0A3ECD4
:101D2900F0900E6AEDF0901CE9021E4EC0188581F4
:101D390018E51824FBFA900E64E4F0A3F0A3F0E58B
:101D49001824FBF8900E67E6F008A3E6F008A3E66E
:101D5900F0900E6AEAF0901CE9121E4EAA82AB833B
:101D6900D01822E582900E60F0900E60E0FA900E95
:101D790056E0C0E0A3E0C0E0A3E0C0E0749AC0E090
:101D8900741DC0E0900E54E0C0E0A3E0C0E08A8278
:101D990022158115811581900E5EE0FAA3E0FB9072
:101DA9000E5E74012AF0E43BA3F022E582900E61F5
:101DB900F0900E61E0FA74302AFA24C6500A7407CA
:101DC9002AFA3000034302208A82021D6CE58290C0
:101DD9000E62F0900E62E0FAC4540FFBF582C00265
:101DE900121DB4D00253020F8A82021DB4E58290FB
:101DF9000E63F0900E59E0FAA3E0FBA3E0FCA3E028
:101E0900FD900E5DE0FE900E63E0FF7820EE2EFE61
:101E1900ED235401F94206EA2AFAEB33FBEC33FCD1
:101E2900ED33FDC3EE9F4007EEC39FFE430201D889
:101E3900DC900E59EAF0A3EBF0A3ECF0A3EDF090DF
:101E49000E5DEEF022AA83E582900E6BF0A3EAF014
:101E5900900E6BE0FAA3E0FB900E54EAF0A3EBF0CE
:101E6900900E64E0FAA3E0FBA3E0FC900E56EAF0C2
:101E7900A3EBF0A3ECF0900E5EE4F0A3F0900E67F4
:101E8900E0FAA3E0FBA3E0FC8A828B838CF01225A5
:101E9900D4FD900E6774012AF0E43BA3F0A3ECF0A3
:101EA900ED7003022575BD2502800302256DC2016F
:101EB900C202C203C204C205C206C207C208900E0A
:101EC9006DE4F0900E6EF0900E6F74FFF0900E6757
:101ED900E0FAA3E0FBA3E0FC8A828B838CF0122555
:101EE900D4FEA3AA82AB83900E67EAF0A3EBF0A31A
:101EF900ECF0900E71EEF0BE25088E82121D6C0278
:101F09001E868E07BF300040498E07EF24C6404227
:101F1900900E6FE0FFBFFF29C002C003C004900EFE
:101F29006EE0FA75F00AA4FAEE24D0900E6E2AF04B
:101F3900900E6EE0FAD004D003D002709BD20280DA
:101F490097EF75F00AA4FFEE24D0900E6F2FF002E0
:101F59001EE1900E71E0FEBE2E08900E6FE4F002B5
:101F69001EE18E82C002C003C004C0061225F0E53E
:101F79008224FF9200D006D004D003D0023000079B
:101F8900900E7174DF5EF0900E71E0FEBE2002804B
:101F990055BE2B02804BBE2D028041BE4202804BB2
:101FA900BE43028050BE44030221E2BE4603022220
:101FB90004BE49030221E2BE4C028034BE4F030233
:101FC90021ECBE5003022144BE53028042BE550398
:101FD9000221F4BE58030221FC022208D201021E8A
:101FE900E1D203021EE1D204021EE1D206021EE181
:101FF900D207021EE1900E6AE0FA24FEF8900E6AFA
:10200900F08602088603188A82121D6C0222149037
:102019000E6AE0FA24FDF8900E6AF086020886033B
:102029000886041818900E59EAF0A3EBF0A3ECF017
:10203900900E59E0FAA3E0FBA3E0FC8A828B838C23
:10204900F0122581AA82AB83900E6FE0FBBBFF05DE
:10205900900E6FEAF0200138900E6EE0FBC3EA9B08
:10206900502E900E6EEBC39AF0900E6EE0FB8B042F
:102079001B900E6EEBF0BC00028010758220C0022E
:10208900C003121D6CD003D00280E3900E6EEBF0FA
:10209900900E6FE0FDC002900E59E0FCA3E0FFA393
:1020A900E0FA8C828F838AF01225D4D00260538D96
:1020B900041DC374808CF063F08095F05044C00215
:1020C900900E59E0F519A3E0F51AA3E0F51B740188
:1020D9002519FBE4351AFAAC1B900E59EBF0A3EA6B
:1020E900F0A3ECF0851982851A83851BF01225D49B
:1020F900FAF582C002C005121D6CD005D002D002CB
:102109008093200103022214900E6EE0FBC3EA9B28
:102119004003022214900E6EEBC39AF0900E6EE00B
:10212900FA8A031A900E6EEAF0BB000302220F75B9
:102139008220C002121D6CD00280E6900E6AE0FB7C
:1021490024FDF8900E6AF0860308860408860718AD
:1021590018900E59EBF0A3ECF0A3EFF0900E5BE0B2
:10216900FB247F5008900E717443F08020EB249F6C
:102179005008900E717450F08013EB24BF500890F2
:102189000E717449F08006900E717458F0900E71BA
:10219900E0FBF582C003121D6CD00375823AC003BF
:1021A900121D6CD003758230C003121D6CD00375EB
:1021B9008278C003121D6CD003BB4902800FBB504B
:1021C90002800A900E5AE0FBF582121DD6900E5934
:1021D900E0FBF582121DD68032D205900E6D740A8D
:1021E900F08028900E6D7408F08020900E6D740AAE
:1021F900F08018900E6D7410F08010D208800C8E4B
:1022090082121D6C8005900E6EEAF030086B900EFC
:102219006AE0FA24FCF8900E6AF086020886030840
:102229008604088606181818900E59EAF0A3EBF0F0
:10223900A3ECF0A3EEF0900E597459F0A37430F0AA
:10224900A37480F0900E59E0FBA3E0FCA3E0FD74B9
:10225900012BFEE43CFF8D02900E59EEF0A3EFF046
:10226900A3EAF08B828C838DF01225D4FA700302D5
:102279001E868A82121D6C80CB900E6DE0FABA0020
:1022890003021E86900E787477F0A3740EF0300660
:102299004C900E6AE0FA14F8900E6AF08602EA335E
:1022A90095E0FBFCFE900E59EAF0A3EBF0A3ECF0ED
:1022B900A3EEF030050302235C900E59E0FAA3E087
:1022C900FBA3E0FCA3E0FE7B007C007E00900E599E
:1022D900EAF0A3EBF0A3ECF0A3EEF0807630072A46
:1022E900900E6AE0FA24FCF8900E6AF086020886DD
:1022F90003088604088606181818900E59EAF0A3F0
:10230900EBF0A3ECF0A3EEF08049900E6AE0FA241A
:10231900FEF8900E6AF0860208860318EB3395E002
:10232900FCFE900E59EAF0A3EBF0A3ECF0A3EEF05B
:10233900200520900E59E0FAA3E0FBA3E0FCA3E0FE
:10234900FE7C007E00900E59EAF0A3EBF0A3ECF0BE
:10235900A3EEF030053E900E59E0FAA3E0FBA3E0AE
:10236900FCA3E0FE30E72B900E59E0FAA3E0FBA3B3
:10237900E0FCA3E0FEC3E49AFAE49BFBE49CFCE4E2
:102389009EFE900E59EAF0A3EBF0A3ECF0A3EEF059
:102399008002C205D209900E6DE0FC751C77751D8F
:1023A9000E7D00900E5DE4F08C82C004C005121D04
:1023B900F6D005D004200932C004900E5DE0FFC4B8
:1023C900FF851C82851D83E0FA4207851C82851DD5
:1023D90083EFF0151C74FFB51C02151D900E78E5EE
:1023E9001CF0A3E51DF0D004800C900E5DE0FF8584
:1023F9001C82851D83F00D900E70EDF0B209900ED0
:1024090059E0FFA3E0FAA3E0FEA3E0FBEF4A4E4B3D
:102419007091900E78E51CF0A3E51DF0900E70ED1B
:10242900F0900E6EE0FA7006900E6E7401F02002C4
:102439002720012474012DFA900E6EE0FBC3EA9B5C
:102449005011758220C002C003121D6CD003D00246
:102459001B80EA900E6EEBF030051275822D121D6D
:102469006C900E6EE0FA14900E6EF0802F900E7044
:10247900E0FA602830031275822B121D6C900E6EE3
:10248900E0FA14900E6EF080133004107582201259
:102499001D6C900E6EE0FA14900E6EF020012F90D4
:1024A9000E70E0FA900E6EE0FB8B041B900E6EEB43
:1024B900F0C3EA9C50363002047C3080027C208CC8
:1024C90082C002C003121D6CD003D00280DB900EC3
:1024D9006EE0FA900E70E0FCC39A5009900E6EEA15
:1024E900C39CF0800C900E6EE4F08005900E6EEBAC
:1024F900F0900E78E0FAA3E0FB900E70E0FC8C06F9
:102509001CEE6040B2092009150ABA00010B8A8243
:102519008B83E0FEC4540FFE900E5DF0800E8A821C
:102529008B83E0FE53060F900E5DEEF0900E5DE09A
:10253900FEF582C002C003C004121DB4D004D0034A
:10254900D00280BA200103021E86900E6EE0FA8A3C
:10255900031AEB7003021E86758220C002121D6CDD
:10256900D00280EB8D82121D6C021E86900E5EE0F9
:08257900FAA3E08A82F5832237
:0B3059003C4E4F20464C4F41543E00BF
:10258100AAF0AB83E582900E7AF0A3EBF0A3EAF018
:102591007A007B00900E7AE0FCA3E0FDA3E0FE8CC4
:1025A100828D838EF01225D4FFA3AC82AD83900E71
:1025B1007AECF0A3EDF0A3EEF0EF60070ABA00DFCA
:1025C1000B80DC900E7AECF0A3EDF0A3EEF08A82A2
:0325D1008B8322D7
:0D000300758121120064E582600302005F38
:1025D40020F71430F6148883A88220F507E6A88330
:1025E40075830022E280F7E49322E022E582900ED4
:1025F4007DF0900E7DE0FABA61004009EA2485403E
:0926040004758201227582002296
:00000001FF
